:200000000C9462000C948A090C9463090C948A000C948A000C948A000C948A000C948A00CD
:200020000C948A000C948A000C948A000C948A000C948A000C948A000C948A000C948A0070
:200040000C9419090C948A000C94D7090C94B1090C948A000C948A000C948A000C948A0032
:200060000C94090A0C948A0000000000240027002A0000000000250028002B0000000000B6
:20008000230026002900040404040404040402020202020203030303030301020408102071
:2000A0004080010204081020010204081020000000080002010000030407000000000000E9
:2000C0000000280B11241FBECFEFD8E0DEBFCDBF11E0A0E0B1E0E6EAF1E202C005900D92A1
:2000E000A63DB107D9F723E0A6EDB1E001C01D92A337B207E1F710E0C2E6D0E004C02197CF
:20010000FE010E94CB10C136D107C9F70E94A90B0C94D1100C940000833081F028F481306C
:2001200099F08230A9F008958730A9F08830C9F08430B1F4809180008F7D03C08091800043
:200140008F7780938000089584B58F7784BD089584B58F7DFBCF8091B0008F778093B000B3
:2001600008958091B0008F7DF9CFCF93DF93282F30E0F901E255FF4F8491F901E656FF4FFA
:20018000D491F901EA57FF4FC491CC23A1F081110E948C00EC2FF0E0EE0FFF1FE458FF4F4C
:2001A000A591B491EC91ED2381E090E009F480E0DF91CF91089580E090E0FACF1F93CF93EF
:2001C000DF93282F30E0F901E255FF4F8491F901E656FF4FD491F901EA57FF4FC491CC23FC
:2001E000A9F0162F81110E948C00EC2FF0E0EE0FFF1FEE58FF4FA591B4918FB7F894EC91FD
:20020000111108C0D095DE23DC938FBFDF91CF911F910895DE2BF8CFCF93DF9390E0FC01A3
:20022000E656FF4F24918A579F4FFC0184918823D1F090E0880F991FFC01E859FF4FA591B1
:20024000B491FC01EE58FF4FC591D491623071F49FB7F8943C91822F809583238C93E88173
:200260002E2B28839FBFDF91CF9108958FB7F894EC912E2B2C938FBFF6CF1F93CF93DF93AF
:20028000182FEB0161E00E940C01209739F460E0812FDF91CF911F910C94DE00CF3FD10585
:2002A00011F461E0F5CFE12FF0E0E255FF4FE491E33031F140F4E130B1F0E230E1F0C03864
:2002C000D1057CF7E4CFE73029F1E83059F1E430B1F780918000806280938000D0938B00DF
:2002E000C0938A0004C084B5806884BDC7BDDF91CF911F91089584B5806284BDC8BDF7CFB3
:2003000080918000806880938000D0938900C0938800EDCF8091B00080688093B000C0938F
:20032000B300E5CF8091B00080628093B000C093B400DDCF3FB7F8948091390290913A0212
:20034000A0913B02B0913C0226B5A89B05C02F3F19F00196A11DB11D3FBFBA2FA92F982FAD
:200360008827BC01CD01620F711D811D911D42E0660F771F881F991F4A95D1F708958F9207
:200380009F92AF92BF92CF92DF92EF92FF926B017C010E949A014B015C01C114D104E10458
:2003A000F104B9F00E949A01681979098A099B09683E73408105910580F321E0C21AD1088A
:2003C000E108F10888EE880E83E0981EA11CB11CE4CFFF90EF90DF90CF90BF90AF909F9040
:2003E0008F9008952FB7F894609135027091360280913702909138022FBF08950F931F93EA
:20040000CF93DF93C0910001CC0FCC0FC093000182E00E94B500892B19F0C260C0930001C0
:2004200083E00E94B500892B29F080910001816080930001E0910001EF70F0E0EB5FFE4FF6
:2004400080819091D601890F8093D601843094F10E949A0100915C0310915D0320915E03A8
:2004600030915F03601B710B820B930BC1E0D0E0683A71468105910510F4CAE0D0E00E9471
:200480009A0160935C0370935D0380935E0390935F0380913202909133028C0F9D1F9093FE
:2004A0003302809332021092D601DF91CF911F910F9108958D3FCCF70E949A0100915803D2
:2004C0001091590320915A0330915B03601B710B820B930BCFEFDFEF683A714681059105CF
:2004E00010F4C6EFDFEF0E949A01609358037093590380935A0390935B03CBCF08950895C6
:200500000895AF92BF92CF92DF92EF92FF920F931F93CF93DF936C017B018B01040F151FE4
:20052000EB015E01AE18BF08C017D10759F06991D601ED91FC910190F081E02DC60109959B
:20054000892B79F7C501DF91CF911F910F91FF90EF90DF90CF90BF90AF900895FC01538DAD
:20056000448D252F30E0842F90E0821B930B541710F0CF96089501970895FC01918D828D1C
:20058000981761F0A28DAE0FBF2FB11D5D968C91928D9F5F9F73928F90E008958FEF9FEF3A
:2005A0000895FC01918D828D981731F0828DE80FF11D858D90E008958FEF9FEF0895FC01CB
:2005C000918D228D892F90E0805C9F4F821B91098F73992708958FEA92E00E94DF0221E057
:2005E000892B09F420E0822F089580E090E0892B29F00E94EB0281110C9400000895FC0104
:20060000A48DA80FB92FB11DA35ABF4F2C91848D90E001968F739927848FA689B7892C9359
:20062000A089B1898C91837080648C93938D848D981306C00288F389E02D80818F7D80837F
:200640000895EF92FF920F931F93CF93DF93EC0181E0888F9B8D8C8D98131AC0E889F989A5
:20066000808185FF15C09FB7F894EE89FF896083E889F98980818370806480839FBF81E0CF
:2006800090E0DF91CF911F910F91FF90EF900895F62E0B8D10E00F5F1F4F0F731127E02ECF
:2006A0008C8D8E110CC00FB607FCFACFE889F989808185FFF5CFCE010E94FF02F1CFEB8D3F
:2006C000EC0FFD2FF11DE35AFF4FF0829FB7F8940B8FEA89FB8980818062CFCFCF93DF9320
:2006E000EC01888D8823B9F0AA89BB89E889F9898C9185FD03C0808186FD0DC00FB607FCBF
:20070000F7CF8C9185FFF2CF808185FFEDCFCE010E94FF02E9CFDF91CF9108952091F8012F
:20072000260F3327331F21323105ECF420918502FC0190E080E0243069F082E00895A0918D
:20074000F8012191AC0148525E4FA40FB52FB11D2C930196861798F38091F801680F6093A3
:20076000F80180E0089581E008951092850281E08093840210925F0261E082E10E94DE003B
:2007800061E083E10E94DE00E9EBF0E080818E7F808380818D7F808388E48093B80085E4CF
:2007A0008093BC000895CF93DF9391E09093D7018823B9F0C091B800D091BA008091BC0048
:2007C0008A7B8093BC0060E082E10E94DE0060E083E10E94DE000E94B503D093BA00C09334
:2007E000B800DF91CF9108958F929F92AF92BF92CF92DF92EF92FF920F931F93CF93DF93E4
:20080000D091AE02D13208F0D7C0182FC091AD020E949A016B017C018091850281116BC073
:2008200082E080938502109384028FEF8093830210928202D0938102ADE8B2E0E1E6F2E0B1
:2008400080E0D81391C01092600280916002CC0FC82BC093600280915F02813009F088C09E
:2008600010925F020E949A016B017C01809160028093BB008091870290918802A09189020D
:20088000B0918A02892B8A2B8B2BA1F00E949A0100918702109188022091890230918A02D0
:2008A0006C197D098E099F09061717072807390708F442C08091BC0083FDD8CF85EC8093CE
:2008C000BC000E949A016B017C0180918502823009F450C0809183028F3F09F46FC080913E
:2008E0008302803209F46CC080918302803309F469C084E026C08091870290918802A09169
:200900008902B0918A02892B8A2B8B2B09F484CF0E949A018090870290908802A0908902D5
:20092000B0908A026C197D098E099F0986169706A806B90608F070CF809186020E94D303B3
:2009400085E010928C021092AE0210928B02DF91CF911F910F91FF90EF90DF90CF90BF9036
:20096000AF909F908F9008959D9191938F5F69CF85EEA5CF8091870290918802A0918902ED
:20098000B0918A02892B8A2B8B2B09F49ECF0E949A01009187021091880220918902309182
:2009A0008A026C197D098E099F09061717072807390708F08ACFC0CF81E0C3CF80E0C1CFF4
:2009C00082E0BFCF83E0BDCFCF93C62FA0916403B09165039091660321E020938B029093B2
:2009E000AD0210928C021092AE02ED91FC9111970190F081E02D682FCD0109958091640389
:200A000090916503DC01ED91FC910190F081E02D6C2F099581E00E94F40391E0811190E0B0
:200A2000892FCF9108958091660391E090938B028093AD0210928C021092AE0281E00E941F
:200A4000F40391E0811190E0892F0895CF92DF92EF92FF920F931F93CF93DF93D82FC62FCF
:200A6000613208F098C00E949A016B017C018091850281116BC081E0809385028093840284
:200A80009FEF90938302109282029C0F909381028093600280916002DD0FD82BD09360020D
:200AA00080915F02813009F078C010925F020E949A016B017C01809160028093BB00809167
:200AC000870290918802A0918902B0918A02892B8A2B8B2BA1F00E949A01009187021091B1
:200AE00088022091890230918A026C197D098E099F09061717072807390708F448C08091DA
:200B0000BC0083FDD8CF85EC8093BC000E949A016B017C0180918502813009F440C0809135
:200B200082028C1710F4C0918202E1E6F2E0AFE3B2E080E08C1355C08C2FDF91CF911F91A9
:200B40000F91FF90EF90DF90CF9008958091870290918802A0918902B0918A02892B8A2B45
:200B60008B2B09F484CF0E949A0100918702109188022091890230918A026C197D098E09C2
:200B80009F09061717072807390708F070CF809186020E94D303C0E0CFCF85EEB5CF809175
:200BA000870290918802A0918902B0918A02892B8A2B8B2B09F4AECF0E949A010091870288
:200BC000109188022091890230918A026C197D098E099F09061717072807390708F09ACF0C
:200BE000D6CF91919D938F5FA5CF0895E0913E0280913D02E81730F4F0E0E15CFD4F808181
:200C000090E008958FEF9FEF089590913E0280913D022FEF3FEF981748F4E92FF0E0E15C11
:200C2000FD4F208130E09F5F90933E02C901089580913D0290913E02891B990B0895CF92F8
:200C4000DF92EF92FF920F931F93CF93DF937C01CB018A0120918B02222389F0EB016B01C1
:200C6000C40ED51ECC15DD0569F06991D701ED91FC910190F081E02DC7010995F3CF642FEC
:200C80000E948E03C801DF91CF911F910F91FF90EF90DF90CF900895CF93DF931F92CDB7B6
:200CA000DEB7698320918B022223F9F02091AE02203258F021E030E0FC013383228390E073
:200CC00080E00F90DF91CF91089580918C02E82FF0E0E357FD4F998190838F5F80938C02E0
:200CE0008093AE0281E090E0ECCF61E0CE0101960E948E03F7CF90E080E00895FC0101900A
:200D00000020E9F73197AF01481B590BBC018FEA92E00C9481028F929F92AF92BF920F9343
:200D20001F93CF93DF93CDB7DEB7A1970FB6F894DEBF0FBECDBF19A2423008F44AE08E01B3
:200D40000F5D1F4F842E912CB12CA12CA50194010E948A10E62FB901CA01EA30F4F4E05D50
:200D6000D801EE938D01232B242B252B79F790E080E0109719F0CD010E947E06A1960FB6BE
:200D8000F894DEBF0FBECDBFDF91CF911F910F91BF90AF909F908F900895E95CE1CFCF93E1
:200DA000DF930E947E06EC0189E391E00E947E068C0F9D1FDF91CF910895CF92DF92EF9294
:200DC000FF9280916403909165032091660331E030938B022093AD0210928C021092AE0222
:200DE000DC01ED91FC910190F081E02D62E1099581E00E94F403882359F030E020E080E0BD
:200E000090E0632F722FFF90EF90DF90CF90089563E0809166030E94260510923E02809337
:200E20003D028091640390916503DC01ED91FC910084F185E02D0995892BF9F280916403CE
:200E400090916503DC01ED91FC910284F385E02D09956C018091640390916503DC01ED91AF
:200E6000FC910284F385E02D0995A601DD0C660B770BBA0155274427092E000CAA0BBB0B59
:200E8000BA2FA92F982F88276A017B01C82AD92AEA2AFB2A8091640390916503DC01ED91AA
:200EA000FC910284F385E02D0995092E000CAA0BBB0BAC01BD014C295D296E297F2967FD35
:200EC0007F6F342F252FCB019CCFA0916403B09165039091660321E020938B029093AD0258
:200EE00010928C021092AE02ED91FC9111970190F081E02D682FCD01099581E00E94F403B1
:200F0000882311F08FEF089561E0809166030E94260510923E0280933D02809164039091B5
:200F20006503DC01ED91FC910084F185E02D0995892B41F38091640390916503DC01ED9178
:200F4000FC910284F385E02D09950895CF93DF93D82FC62F862F0E94650761E070E001C0D9
:200F6000660FDA95EAF7682B8C2FDF91CF910C94E4048F929F92AF92BF92CF92DF92EF92CF
:200F8000FF92CF93DF93D82F0E94F2014B015C01C0E0C12CD12C760180E00E94650785FFB4
:200FA00009C00E94DD06C60ED71EE81EF91ECF5FCD1791F00E94F201681979098A099B099B
:200FC000693E734081059105E0F461E070E080E090E00E94BF01E0CF2C2F30E050E040E09A
:200FE000C701B6010E94AC10CA01B901DF91CF91FF90EF90DF90CF90BF90AF909F908F9007
:20100000089520E030E0A901EFCF4F925F926F927F928F929F92AF92BF92CF92DF92EF92A0
:20102000FF920F931F93CF936B017C01742EAC019B010E948510882399F08CE391E0CF91EA
:201040001F910F91FF90EF90DF90CF90BF90AF909F908F907F906F905F904F900C947E0688
:2010600046015701E894B7F82FEF3FEF4FE75FE7C501B4010E94851081110DC02FEF3FEF81
:201080004FE75FE7C501B4010E94BB0E18161CF480E491E0D4CF2FEF3FEF4FE75FE4C701AB
:2010A000B6010E94131018161CF484E491E0C7CF2FEF3FEF4FE75FECC701B6010E94BB0E50
:2010C00087FDF3CF20E030E0A901C701B6010E94BB0E10E000E087FF0AC06DE28FEA92E0CC
:2010E0000E9421038C01F7FAF094F7F8F094C0E060E070E080E09FE37C1641F020E030E0D0
:2011000040E251E40E94C00ECF5FF6CFA70196010E944F0E2B013C010E94320F4B015C01E2
:201120004AE00E948B067C01E00EF11ECC23C1F1C501B4010E94610F9B01AC01C301B201EA
:201140000E944E0E4B015C016EE28FEA92E00E942103E80EF91EC15018F120E030E040E28E
:2011600051E4C501B4010E9418102B013C010E94320F4B01B12CA12C4AE0C501B4010E946C
:201180008B06E80EF91EC501B4010E94610F9B01AC01C301B2010E944E0E4B015C01DBCF13
:2011A000C701CF911F910F91FF90EF90DF90CF90BF90AF909F908F907F906F905F904F9023
:2011C000089585ED8093BC008091870290918802A0918902B0918A020796A11DB11D23E037
:2011E000B695A795979587952A95D1F72091BC0024FD03C010928502089540918702509147
:2012000088026091890270918A02452B462B472B69F30097A105B10541F02AE22A95F1F7B5
:2012200000C00197A109B109E1CF809186020C94D3031F920F920FB60F9211242F933F93B2
:201240008F939F93AF93BF938091350290913602A0913702B09138023091340223E0230FF4
:201260002D3758F50196A11DB11D209334028093350290933602A0933702B0933802809112
:20128000390290913A02A0913B02B0913C020196A11DB11D8093390290933A02A0933B0289
:2012A000B0933C02BF91AF919F918F913F912F910F900FBE0F901F90189526E8230F0296FE
:2012C000A11DB11DD2CF1F920F920FB60F9211242F933F934F935F936F937F938F939F9324
:2012E000AF93BF93EF93FF93E0910301F09104010995FF91EF91BF91AF919F918F917F91AD
:201300006F915F914F913F912F910F900FBE0F901F9018951F920F920FB60F9211242F9357
:201320003F934F935F936F937F938F939F93AF93BF93EF93FF93E0910101F0910201099562
:20134000FF91EF91BF91AF919F918F917F916F915F914F913F912F910F900FBE0F901F9073
:2013600018951F920F920FB60F9211242F933F934F935F936F937F938F939F93AF93BF936F
:20138000EF93FF938FEA92E00E94FF02FF91EF91BF91AF919F918F917F916F915F914F91DB
:2013A0003F912F910F900FBE0F901F9018951F920F920FB60F9211242F938F939F93EF93B1
:2013C000FF93E091BF02F091C0028081E091C502F091C60282FD1BC090818091C8028F5F50
:2013E0008F732091C902821741F0E091C802F0E0E155FD4F958F8093C802FF91EF919F91D7
:201400008F912F910F900FBE0F901F9018958081F4CF1F920F920FB60F9211242F933F9340
:201420004F935F936F937F938F939F93AF93BF93EF93FF938091B900887F803609F44AC03A
:20144000F0F5883209F4A7C018F5803109F49BC0B8F4882309F4F9C0883009F494C0FF91CD
:20146000EF91BF91AF919F918F917F916F915F914F913F912F910F900FBE0F901F90189535
:20148000883109F488C0803251F78093830214C0803409F49DC040F48033B9F38833F9F69D
:2014A0008093830285ECB0C0803509F485C0883509F496C0883499F60E94E108D0CF883976
:2014C00009F48CC038F5883729F050F4883611F0803729F683E08093850210921A0257C013
:2014E000883809F47BC0803919F0803809F0B7CF80911A02803208F071C0E0911A0281E005
:201500008E0F80931A028091BB00F0E0E650FE4F80833DC0803B39F0E0F4803A09F479C038
:20152000883A09F09CCF84E0809385021092F9011092F801E0911D02F0911E020995809170
:20154000F80181110FC081E08093F8011092D80109C0803C09F4A6CF883C09F4A3CF883B5C
:2015600009F07DCFE091F90181E08E0F8093F901F0E0E852FE4F80818093BB009091F9016F
:201580008091F80129C0809160028093BB0085EC8093BC0064CF90918202809181029817BC
:2015A00058F5E091820281E08E0F80938202F0E0EF59FD4F8081E9CFE091820281E08E0F44
:2015C000809382028091BB00F0E0EF59FD4F808390918202809181029817C8F285E8D8CF8B
:2015E000E091820281E08E0F809382028091BB00F0E0EF59FD4F80838091840281115CCFDA
:2016000081E080935F0284EA8093BC001092850226CF85EC8093BC001092850280911A0204
:20162000803230F4E0911A02F0E0E650FE4F108260911A0270E0E0911B02F0911C028AEF5F
:2016400091E0099510921A020ACF1092830234CFCF93DF93EFEAF2E01382128288EE93E029
:20166000A0E0B0E084839583A683B78329E131E03183208325EC30E03587248724EC30E0BE
:201680003787268720EC30E0318B208B21EC30E0338B228B22EC30E0358B248B26EC30E025
:2016A000378B268B118E128E138E148EECE4F3E01382128284839583A683B7838BE291E009
:2016C00091838083E4E6F3E08AE28283138214821582168280E090E0A0E8BFE38783908770
:2016E000A187B2878AEF90E0A0E0B0E083879487A587B687C0E6D3E01982188285E08A8302
:2017000084E08B8361E085E00E940C0161E08B810E940C0160E08A810E94DE0060E08B81EF
:201720000E94DE000E949A0160935C0370935D0380935E0390935F030E949A0160935803B3
:201740007093590380935A0390935B03DF91CF910895789484B5826084BD84B5816084BD09
:2017600085B5826085BD85B5816085BD80916E00816080936E001092810080918100826036
:201780008093810080918100816080938100809180008160809380008091B10084608093F0
:2017A000B1008091B00081608093B00080917A00846080937A0080917A00826080937A001D
:2017C00080917A00816080937A0080917A00806880937A001092C100E091BF02F091C00238
:2017E00082E08083E091BB02F091BC021082E091BD02F091BE0280E180831092C702E091D4
:20180000C302F091C40286E08083E091C102F091C202808180618083E091C102F091C2027C
:20182000808188608083E091C102F091C202808180688083E091C102F091C20280818F7DD1
:20184000808362E082E00E940C0162E083E00E940C012EEF31E03093020120930101809124
:2018600069008C7F816080936900E89A309304012093030180916900837F846080936900BA
:20188000E99A10923E0210923D0210928C021092AE020E94B5038EE792E090931E028093E9
:2018A0001D028FE792E090931C0280931B028CE08093B8008CE493E0909365038093640391
:2018C0000E941305882359F160E080E00E94A60761E070E080E090E00E94BF0180E00E94A5
:2018E0006507682F6E7F80E00E94E404182F60E081E00E94A60760E082E00E94A607D6E62A
:2019000080E00E94650783FD13C061E070E080E090E00E94BF01D15099F7C0E00EC00E9482
:2019200013058111D1CF88E491E00E94CF06FFCF60E084E00E94A607C82F81E00E946507E2
:20194000877C682F606281E00E94E40460E087E00E94A607C823C12381E00E946507682F75
:20196000676081E00E94E404C82382E00E9465078F78682F606382E00E94E404C82385E1BC
:201980000E946507682F606385E10E94E404C8236CE187E00E94A607C8238BE10E9465079C
:2019A000682F6F7B8BE10E94E404C82360916F037091700380917103909172030E94BF0171
:2019C0008AE00E94B90782E00E946507682F6C7F82E00E94E40462E082E00E94A6070E94C8
:2019E000F2016B017C0182E00E94650782FF0EC00E94F2016C197D098E099F09693E734013
:201A00008105910508F42AC190E006C082E00E94650791E083FDF8CFCC2309F484CF99236A
:201A200009F481CF8DE791E00E94CF0682E00E946507682F606782E00E94E4048DE891E05D
:201A40000E94CF0683E4482E89EB582E66246394712C00E010E080916003909161030097BA
:201A600009F403C1019709F40CC1209132023091330280913002909131022817390741F120
:201A80006091320270913302072E000C880B990B0E94630F2CEE31E548E35EE30E941810F9
:201AA00042E00E94050889E391E00E947E060E94F2014AE00E948B0689E391E00E947E065D
:201AC0008091320290913302909331028093300284E296E1A2E8B6E480936B0390936C03BC
:201AE000A0936D03B0936E0340926703509268036092690370926A0380E00E94650785FF47
:201B00008AC00E94DD066B017C0188E00E94B907382F292F8090670390906803A0906903E3
:201B2000B0906A03CB01A32FB22F88159905AA05BB0514F4D501C401BC01CD01681979099E
:201B40008A099B090E94630F20916B0330916C0340916D0350916E030E94C00E4B015C013F
:201B600084EB91E00E947E064AE0C701B601F7FE0DC06DE28FEA92E00E94210366277727C9
:201B8000CB016C197D098E099F094AE00E948B068EEB91E00E947E0642E0C501B4010E9483
:201BA0000508E0912F0281E08E0F80932F0294E0E99FF0011124E15EFD4F80829182A2824E
:201BC000B382843011F410922F02CFE1D2E0C12CD12C76012991399149915991C701B601BA
:201BE0000E944F0E6B017C01A2E0CF32DA0791F788EC91E00E947E0620E030E040E85EE38D
:201C0000C701B6010E94181042E00E94050889E391E00E947E068FEA92E00E94DF02892B85
:201C200089F08FEA92E00E94BD02843759F488E00E94B907609367037093680380936903C3
:201C400090936A030115110509F405CF0E94EB02882309F400CF0E940000FDCE61E070E0F3
:201C600080E090E00E94BF01BECE64E270E0809162030E943D0160E0809163030E94DE0083
:201C8000F4CE64E270E0809162030E943D0170E060E0809163030E943D01E7CE5058BB2770
:201CA000AA270E94660E0C94D90F0E94CB0F38F00E94D20F20F039F49F3F19F426F40C94AC
:201CC000C80F0EF4E095E7FB0C94C20FE92F0E94EA0F58F3BA17620773078407950720F07A
:201CE00079F4A6F50C940C100EF4E0950B2EBA2FA02D0B01B90190010C01CA01A0011124B5
:201D0000FF27591B99F0593F50F4503E68F11A16F040A22F232F342F4427585FF3CF469538
:201D200037952795A795F0405395C9F77EF41F16BA0B620B730B840BBAF09150A1F0FF0FF7
:201D4000BB1F661F771F881FC2F70EC0BA0F621F731F841F48F4879577956795B795F795A9
:201D60009E3F08F0B0CF9395880F08F09927EE0F9795879508950E949E0F08F481E008956D
:201D80000E94D40E0C94D90F0E94D20F58F00E94CB0F40F029F45F3F29F00C94C20F511119
:201DA0000C940D100C94C80F0E94EA0F68F39923B1F3552391F3951B550BBB27AA27621761
:201DC0007307840738F09F5F5F4F220F331F441FAA1FA9F335D00E2E3AF0E0E832D09150C9
:201DE0005040E695001CCAF72BD0FE2F29D0660F771F881FBB1F261737074807AB07B0E83A
:201E000009F0BB0B802DBF01FF2793585F4F3AF09E3F510578F00C94C20F0C940D105F3F46
:201E2000E4F3983ED4F3869577956795B795F7959F5FC9F7880F911D9695879597F90895BC
:201E4000E1E0660F771F881FBB1F621773078407BA0720F0621B730B840BBA0BEE1F88F70B
:201E6000E09508950E94F20F88F09F5798F0B92F9927B751B0F0E1F0660F771F881F991F2C
:201E80001AF0BA95C9F714C0B13091F00E940C10B1E008950C940C10672F782F8827B85F48
:201EA00039F0B93FCCF3869577956795B395D9F73EF490958095709561957F4F8F4F9F4F06
:201EC0000895E89409C097FB3EF490958095709561957F4F8F4F9F4F9923A9F0F92F96E991
:201EE000BB279395F695879577956795B795F111F8CFFAF4BB0F11F460FF1BC06F5F7F4F81
:201F00008F4F9F4F16C0882311F096E911C0772321F09EE8872F762F05C0662371F096E86A
:201F2000862F70E060E02AF09A95660F771F881FDAF7880F9695879597F90895990F0008D5
:201F4000550FAA0BE0E8FEEF16161706E807F907C0F012161306E407F50798F0621B730B20
:201F6000840B950B39F40A2661F0232B242B252B21F408950A2609F4A140A6958FEF811D80
:201F8000811D089597F99F6780E870E060E008959FEF80EC089500240A941616170618061B
:201FA0000906089500240A9412161306140605060895092E0394000C11F4882352F0BB0F1A
:201FC00040F4BF2B11F460FF04C06F5F7F4F8F4F9F4F089557FD9058440F551F59F05F3FCC
:201FE00071F04795880F97FB991F61F09F3F79F087950895121613061406551FF2CF469507
:20200000F1DF08C0161617061806991FF1CF86957105610508940895E894BB276627772790
:20202000CB0197F908950E949E0F08F48FEF08950E942B100C94D90F0E94CB0F38F00E9496
:20204000D20F20F0952311F00C94C20F0C94C80F11240C940D100E94EA0F70F3959FC1F316
:20206000950F50E0551F629FF001729FBB27F00DB11D639FAA27F00DB11DAA1F649F662771
:20208000B00DA11D661F829F2227B00DA11D621F739FB00DA11D621F839FA00D611D221F3E
:2020A000749F3327A00D611D231F849F600D211D822F762F6A2F11249F5750409AF0F1F063
:2020C00088234AF0EE0FFF1FBB1F661F771F881F91505040A9F79E3F510580F00C94C20F3F
:2020E0000C940D105F3FE4F3983ED4F3869577956795B795F795E7959F5FC1F7FE2B880F24
:20210000911D9695879597F908950E949E0F880B990B0895A1E21A2EAA1BBB1BFD010DC049
:20212000AA1FBB1FEE1FFF1FA217B307E407F50720F0A21BB30BE40BF50B661F771F881F3B
:20214000991F1A9469F760957095809590959B01AC01BD01CF010895052E97FB1EF40094A6
:202160000E94C31057FD07D00E948A1007FC03D04EF40C94C31050954095309521953F4F35
:202180004F4F5F4F089590958095709561957F4F8F4F9F4F0895EE0FFF1F0590F491E02DA8
:2021A0000994F894FFCF038002800200FF0100010000FFFF0000010001FF00000000002100
:2021C000038102AE026E03DF02BD02D102000000004C061F067B06F50518060506F6050DC2
:2021E0000A006E616E00696E66006F7666005363616C65206E6F7420646574656374656455
:202200002E20506C6561736520636865636B20776972696E672E20467265657A696E672E92
:202220002E2E005363616C6520646574656374656421000D0A50726573732027742720743D
:202240006F2054617265206F72205A65726F20746865207363616C652E0052656164696E98
:20226000673A2000095765696768743A2000094176675765696768743A200000FFFFFFFFED
:20228000661F771F881F91505040A9F79E3F510580F00C949D100C94E8105F3FE4F3983E98
:2022A000D4F3869577956795B795F795E7959F5FC1F7FE2B880F911D9695879597F9089548
:2022C0000E947910880B990B0895A1E21A2EAA1BBB1BFD010DC0AA1FBB1FEE1FFF1FA21747
:2022E000B307E407F50720F0A21BB30BE40BF50B661F771F881F991F1A9469F76095709541
:20230000809590959B01AC01BD01CF010895052E97FB1EF400940E949E1157FD07D00E9486
:20232000651107FC03D04EF40C949E1150954095309521953F4F4F4F5F4F089590958095DA
:20234000709561957F4F8F4F9F4F0895EE0FFF1F0590F491E02D0994F894FFCF038002800D
:202360000200FF0100010000FFFF0000010001FF000000000021038102AE026E03DF02BDF5
:2023800002D102000000004C061F067B06F50518060506F6050D0A006E616E00696E6600C1
:2023A0006F7666005363616C65206E6F742064657465637465642E20506C656173652063EC
:2023C0006865636B20776972696E672E20467265657A696E672E2E2E005363616C65206434
:2023E0006574656374656421000D0A50726573732027742720746F2054617265206F722008
:202400005A65726F20746865207363616C652E00456E7465722074686520737065656420B5
:20242000617420776869636820796F7520776F756C64206C696B6520746F20726F746174BA
:202440006520696E20646567726565732F7365636F6E640054686973206A75737420696E01
:20246000202E2E2E200044617461206173204E756D626572202E2E2E200052656164696E7E
:20248000673A2000095765696768743A2000094176675765696768743A200000FFFFFFFFCB
:2024A000FFFFFFFFFFFFFFFFFFFFFFFFFFFFFFFFFFFFFFFFFFFFFFFFFFFFFFFFFFFFFFFF3C
:2024C000FFFFFFFFFFFFFFFFFFFFFFFFFFFFFFFFFFFFFFFFFFFFFFFFFFFFFFFFFFFFFFFF1C
:2024E000FFFFFFFFFFFFFFFFFFFFFFFFFFFFFFFFFFFFFFFFFFFFFFFFFFFFFFFFFFFFFFFFFC
:202500007265206F72205A65726F20746865207363616C652E00456E7465722074686520ED
:20252000737065656420617420776869636820796F7520776F756C64206C696B6520746FD2
:2025400020726F7461746520696E20646567726565732F7365636F6E640052656164696ED8
:20256000673A2000095765696768743A2000094176675765696768743A200000FFFFFFFFEA
:202580002000095765696768743A2000094176675765696768743A2000095363616C652056
:2025A0006E6F742063616C696272617465642E205072657373202763272E0000FFFFFFFF49
:2025C000FFFFFFFFFFFFFFFFFFFFFFFFFFFFFFFFFFFFFFFFFFFFFFFFFFFFFFFFFFFFFFFF1B
:2025E000FFFFFFFFFFFFFFFFFFFFFFFFFFFFFFFFFFFFFFFFFFFFFFFFFFFFFFFFFFFFFFFFFB
:202600001397A815B90559F56C0142E0C40ED11CCA14DB0420F1AC014A195B09DA01129634
:20262000159780F06282738251834083D9016D937C93E114F10471F0D7011396FC93EE9349
:20264000129776CF22968C0F9D1FF90191838083F301EFCFF0932904E093280469CF4816D5
:20266000590608F42C017D01D3019ACFCB010E9466117C01009749F0AE01B8010E94481380
:20268000C8010E940212870153CF10E000E050CFFB01DC0102C001900D9241505040D8F767
:2026A0000895FB01DC018D91019080190110D9F3990B0895FB01DC0101900D920020E1F73D
:2026C0000895F894FFCF0102030405060708090A121300002A04800000000000350195002E
:2026E000C2008201F300D100E50000000000B2048504E1045B047E046B045C040D0A006E93
:20270000616E00696E66006F7666004F4B00494E505554004F555450555400554E4F005401
:202720006172676574204E616D650041307265666572656E63650041317265666572656E6C
:20274000636500445454204E4F5420464F554E44004B4F004D495353494E472041434B0075
:202760004D495353494E472053544F500050494E5300456E644F665465737400FFFFFFFF37
:20278000FFFFFFFFFFFFFFFFFFFFFFFFFFFFFFFFFFFFFFFFFFFFFFFFFFFFFFFFFFFFFFFF59
:2027A000FFFFFFFFFFFFFFFFFFFFFFFFFFFFFFFFFFFFFFFFFFFFFFFFFFFFFFFFFFFFFFFF39
:2027C000FFFFFFFFFFFFFFFFFFFFFFFFFFFFFFFFFFFFFFFFFFFFFFFFFFFFFFFFFFFFFFFF19
:2027E000FFFFFFFFFFFFFFFFFFFFFFFFFFFFFFFFFFFFFFFFFFFFFFFFFFFFFFFFFFFFFFFFF9
:207E0000112484B714BE81FFF0D085E08093810082E08093C00088E18093C10086E08093FC
:207E2000C20080E18093C4008EE0C9D0259A86E020E33CEF91E0309385002093840096BBAD
:207E4000B09BFECF1D9AA8958150A9F7CC24DD2488248394B5E0AB2EA1E19A2EF3E0BF2E79
:207E6000A2D0813461F49FD0082FAFD0023811F0013811F484E001C083E08DD089C0823404
:207E800011F484E103C0853419F485E0A6D080C0853579F488D0E82EFF2485D0082F10E0A0
:207EA000102F00270E291F29000F111F8ED068016FC0863521F484E090D080E0DECF84364D
:207EC00009F040C070D06FD0082F6DD080E0C81680E7D80618F4F601B7BEE895C0E0D1E0ED
:207EE00062D089930C17E1F7F0E0CF16F0E7DF0618F0F601B7BEE89568D007B600FCFDCF1A
:207F0000A601A0E0B1E02C9130E011968C91119790E0982F8827822B932B1296FA010C016F
:207F200087BEE89511244E5F5F4FF1E0A038BF0751F7F601A7BEE89507B600FCFDCF97BE85
:207F4000E89526C08437B1F42ED02DD0F82E2BD03CD0F601EF2C8F010F5F1F4F84911BD0B8
:207F6000EA94F801C1F70894C11CD11CFA94CF0CD11C0EC0853739F428D08EE10CD085E9AE
:207F80000AD08FE07ACF813511F488E018D01DD080E101D065CF982F8091C00085FFFCCF0A
:207FA0009093C60008958091C00087FFFCCF8091C00084FD01C0A8958091C6000895E0E68F
:207FC000F0E098E1908380830895EDDF803219F088E0F5DFFFCF84E1DECF1F93182FE3DF47
:207FE0001150E9F7F2DF1F91089580E0E8DFEE27FF270994FFFFFFFFFFFFFFFFFFFF040425
:00000001FF
